{
  "_format": "hh-sol-artifact-1",
  "contractName": "Lottery",
  "sourceName": "contracts/Lottery.sol",
  "abi": [
    {
      "inputs": [],
      "stateMutability": "nonpayable",
      "type": "constructor"
    },
    {
      "inputs": [
        {
          "internalType": "uint256",
          "name": "",
          "type": "uint256"
        }
      ],
      "name": "_jackpots",
      "outputs": [
        {
          "internalType": "uint256",
          "name": "number",
          "type": "uint256"
        },
        {
          "internalType": "uint256",
          "name": "count",
          "type": "uint256"
        }
      ],
      "stateMutability": "view",
      "type": "function"
    },
    {
      "inputs": [
        {
          "internalType": "uint256",
          "name": "",
          "type": "uint256"
        }
      ],
      "name": "_players",
      "outputs": [
        {
          "internalType": "address",
          "name": "player_address",
          "type": "address"
        },
        {
          "internalType": "uint256",
          "name": "value",
          "type": "uint256"
        }
      ],
      "stateMutability": "view",
      "type": "function"
    },
    {
      "inputs": [
        {
          "internalType": "uint256[]",
          "name": "numbers",
          "type": "uint256[]"
        },
        {
          "internalType": "uint256[]",
          "name": "jackpots",
          "type": "uint256[]"
        }
      ],
      "name": "enter",
      "outputs": [],
      "stateMutability": "payable",
      "type": "function"
    },
    {
      "inputs": [],
      "name": "getBalance",
      "outputs": [
        {
          "internalType": "uint256",
          "name": "",
          "type": "uint256"
        }
      ],
      "stateMutability": "view",
      "type": "function"
    },
    {
      "inputs": [],
      "name": "getJackpots",
      "outputs": [
        {
          "components": [
            {
              "internalType": "uint256",
              "name": "number",
              "type": "uint256"
            },
            {
              "internalType": "uint256",
              "name": "count",
              "type": "uint256"
            }
          ],
          "internalType": "struct Lottery.Jackpot[]",
          "name": "",
          "type": "tuple[]"
        }
      ],
      "stateMutability": "view",
      "type": "function"
    },
    {
      "inputs": [],
      "name": "getLotteries",
      "outputs": [
        {
          "components": [
            {
              "internalType": "uint256[]",
              "name": "numbers",
              "type": "uint256[]"
            }
          ],
          "internalType": "struct Lottery.Lottery[]",
          "name": "",
          "type": "tuple[]"
        }
      ],
      "stateMutability": "view",
      "type": "function"
    },
    {
      "inputs": [],
      "name": "getPlayers",
      "outputs": [
        {
          "components": [
            {
              "internalType": "address",
              "name": "player_address",
              "type": "address"
            },
            {
              "internalType": "uint256",
              "name": "value",
              "type": "uint256"
            },
            {
              "internalType": "uint256[]",
              "name": "numbers",
              "type": "uint256[]"
            },
            {
              "internalType": "uint256[]",
              "name": "jackpots",
              "type": "uint256[]"
            }
          ],
          "internalType": "struct Lottery.Player[]",
          "name": "",
          "type": "tuple[]"
        }
      ],
      "stateMutability": "view",
      "type": "function"
    },
    {
      "inputs": [],
      "name": "getWinners",
      "outputs": [
        {
          "components": [
            {
              "components": [
                {
                  "internalType": "address",
                  "name": "player_address",
                  "type": "address"
                },
                {
                  "internalType": "uint256",
                  "name": "value",
                  "type": "uint256"
                },
                {
                  "internalType": "uint256[]",
                  "name": "numbers",
                  "type": "uint256[]"
                },
                {
                  "internalType": "uint256[]",
                  "name": "jackpots",
                  "type": "uint256[]"
                }
              ],
              "internalType": "struct Lottery.Player",
              "name": "player",
              "type": "tuple"
            },
            {
              "internalType": "uint256",
              "name": "winPrize",
              "type": "uint256"
            },
            {
              "internalType": "bool",
              "name": "hasClaimed",
              "type": "bool"
            },
            {
              "internalType": "uint256",
              "name": "sameCount",
              "type": "uint256"
            }
          ],
          "internalType": "struct Lottery.Winner[]",
          "name": "",
          "type": "tuple[]"
        }
      ],
      "stateMutability": "view",
      "type": "function"
    },
    {
      "inputs": [],
      "name": "manager",
      "outputs": [
        {
          "internalType": "address",
          "name": "",
          "type": "address"
        }
      ],
      "stateMutability": "view",
      "type": "function"
    },
    {
      "inputs": [],
      "name": "pickWinner",
      "outputs": [],
      "stateMutability": "nonpayable",
      "type": "function"
    }
  ],
  "bytecode": "0x60806040526040518060c00160405280600060ff168152602001600260ff168152602001600360ff168152602001600560ff168152602001600f60ff168152602001601960ff1681525060069060066200005b92919062000196565b506023600755600a60085560056009553480156200007857600080fd5b50336000806101000a81548173ffffffffffffffffffffffffffffffffffffffff021916908373ffffffffffffffffffffffffffffffffffffffff16021790555060005b6032811015620001415760026040518060400160405280600184620000e291906200020c565b815260200160008152509080600181540180825580915050600190039060005260206000209060020201600090919091909150600082015181600001556020820151816001015550508080620001389062000273565b915050620000bc565b5060005b60068110156200018f576004600090806001815401808255809150506001900390600052602060002001600090919091909150558080620001869062000273565b91505062000145565b50620002f0565b828054828255906000526020600020908101928215620001da579160200282015b82811115620001d9578251829060ff16905591602001919060010190620001b7565b5b509050620001e99190620001ed565b5090565b5b8082111562000208576000816000905550600101620001ee565b5090565b6000620002198262000269565b9150620002268362000269565b9250827fffffffffffffffffffffffffffffffffffffffffffffffffffffffffffffffff038211156200025e576200025d620002c1565b5b828201905092915050565b6000819050919050565b6000620002808262000269565b91507fffffffffffffffffffffffffffffffffffffffffffffffffffffffffffffffff821415620002b657620002b5620002c1565b5b600182019050919050565b7f4e487b7100000000000000000000000000000000000000000000000000000000600052601160045260246000fd5b61262f80620003006000396000f3fe6080604052600436106100915760003560e01c80638b5b9ccc116100595780638b5b9ccc1461016c578063b1a8adfd14610197578063bcc82ec4146101b3578063df15c37e146101de578063e52ff42c1461020957610091565b806312065fe0146100965780632d81324d146100c157806341587823146100ec578063481c6a751461012a5780635d495aea14610155575b600080fd5b3480156100a257600080fd5b506100ab610247565b6040516100b8919061226c565b60405180910390f35b3480156100cd57600080fd5b506100d661024f565b6040516100e391906120e4565b60405180910390f35b3480156100f857600080fd5b50610113600480360381019061010e91906119e7565b6102d0565b6040516101219291906120bb565b60405180910390f35b34801561013657600080fd5b5061013f610324565b60405161014c91906120a0565b60405180910390f35b34801561016157600080fd5b5061016a610348565b005b34801561017857600080fd5b50610181610a75565b60405161018e9190612128565b60405180910390f35b6101b160048036038101906101ac9190611972565b610be4565b005b3480156101bf57600080fd5b506101c86111df565b6040516101d59190612106565b60405180910390f35b3480156101ea57600080fd5b506101f3611292565b604051610200919061214a565b60405180910390f35b34801561021557600080fd5b50610230600480360381019061022b91906119e7565b6114ef565b60405161023e929190612287565b60405180910390f35b600047905090565b606060006102c76002805480602002602001604051908101604052809291908181526020016000905b828210156102be57838290600052602060002090600202016040518060400160405290816000820154815260200160018201548152505081526020019060010190610278565b50505050611523565b90508091505090565b600181815481106102e057600080fd5b90600052602060002090600402016000915090508060000160009054906101000a900473ffffffffffffffffffffffffffffffffffffffff16908060010154905082565b60008054906101000a900473ffffffffffffffffffffffffffffffffffffffff1681565b60008054906101000a900473ffffffffffffffffffffffffffffffffffffffff1673ffffffffffffffffffffffffffffffffffffffff163373ffffffffffffffffffffffffffffffffffffffff16146103d6576040517f08c379a00000000000000000000000000000000000000000000000000000000081526004016103cd906121ac565b60405180910390fd5b600061044c6002805480602002602001604051908101604052809291908181526020016000905b82821015610443578382906000526020600020906002020160405180604001604052908160008201548152602001600182015481525050815260200190600101906103fd565b50505050611523565b90506000600567ffffffffffffffff811115610491577f4e487b7100000000000000000000000000000000000000000000000000000000600052604160045260246000fd5b6040519080825280602002602001820160405280156104bf5781602001602082028036833780820191505090505b50905060005b815181101561056b57828181518110610507577f4e487b7100000000000000000000000000000000000000000000000000000000600052603260045260246000fd5b60200260200101516000015182828151811061054c577f4e487b7100000000000000000000000000000000000000000000000000000000600052603260045260246000fd5b60200260200101818152505080806105639061253b565b9150506104c5565b5060005b60018054905081101561093d576000600182815481106105b8577f4e487b7100000000000000000000000000000000000000000000000000000000600052603260045260246000fd5b90600052602060002090600402016040518060800160405290816000820160009054906101000a900473ffffffffffffffffffffffffffffffffffffffff1673ffffffffffffffffffffffffffffffffffffffff1673ffffffffffffffffffffffffffffffffffffffff168152602001600182015481526020016002820180548060200260200160405190810160405280929190818152602001828054801561068057602002820191906000526020600020905b81548152602001906001019080831161066c575b50505050508152602001600382018054806020026020016040519081016040528092919081815260200182805480156106d857602002820191906000526020600020905b8154815260200190600101908083116106c4575b50505050508152505090506000805b8260400151518110156107c25760005b85518110156107ae57858581518110610739577f4e487b7100000000000000000000000000000000000000000000000000000000600052603260045260246000fd5b60200260200101518460400151838151811061077e577f4e487b7100000000000000000000000000000000000000000000000000000000600052603260045260246000fd5b6020026020010151141561079b5782806107979061253b565b9350505b80806107a69061253b565b9150506106f7565b5080806107ba9061253b565b9150506106e7565b50600481815481106107fd577f4e487b7100000000000000000000000000000000000000000000000000000000600052603260045260246000fd5b9060005260206000200160008154809291906108189061253b565b91905055506000604051806080016040528084815260200160008152602001600015158152602001838152509050806005600086815260200190815260200160002060008201518160000160008201518160000160006101000a81548173ffffffffffffffffffffffffffffffffffffffff021916908373ffffffffffffffffffffffffffffffffffffffff1602179055506020820151816001015560408201518160020190805190602001906108d092919061181a565b5060608201518160030190805190602001906108ed92919061181a565b5050506020820151816004015560408201518160050160006101000a81548160ff0219169083151502179055506060820151816006015590505050505080806109359061253b565b91505061056f565b5060005b600180549050811015610a6857600060046005600084815260200190815260200160002060060154815481106109a0577f4e487b7100000000000000000000000000000000000000000000000000000000600052603260045260246000fd5b906000526020600020015490506000811115610a5457600060646006600560008681526020019081526020016000206006015481548110610a0a577f4e487b7100000000000000000000000000000000000000000000000000000000600052603260045260246000fd5b906000526020600020015447610a209190612465565b610a2a9190612434565b90508181610a389190612434565b6005600085815260200190815260200160002060040181905550505b508080610a609061253b565b915050610941565b50610a7161175a565b5050565b60606001805480602002602001604051908101604052809291908181526020016000905b82821015610bdb57838290600052602060002090600402016040518060800160405290816000820160009054906101000a900473ffffffffffffffffffffffffffffffffffffffff1673ffffffffffffffffffffffffffffffffffffffff1673ffffffffffffffffffffffffffffffffffffffff1681526020016001820154815260200160028201805480602002602001604051908101604052809291908181526020018280548015610b6b57602002820191906000526020600020905b815481526020019060010190808311610b57575b5050505050815260200160038201805480602002602001604051908101604052809291908181526020018280548015610bc357602002820191906000526020600020905b815481526020019060010190808311610baf575b50505050508152505081526020019060010190610a99565b50505050905090565b662386f26fc10000341015610c2e576040517f08c379a0000000000000000000000000000000000000000000000000000000008152600401610c259061216c565b60405180910390fd5b60058484905014610c74576040517f08c379a0000000000000000000000000000000000000000000000000000000008152600401610c6b9061218c565b60405180910390fd5b60028282905014610cba576040517f08c379a0000000000000000000000000000000000000000000000000000000008152600401610cb1906121ec565b60405180910390fd5b60005b82829050811015610de0576000838383818110610d03577f4e487b7100000000000000000000000000000000000000000000000000000000600052603260045260246000fd5b9050602002013511610d4a576040517f08c379a0000000000000000000000000000000000000000000000000000000008152600401610d41906121cc565b60405180910390fd5b6032838383818110610d85577f4e487b7100000000000000000000000000000000000000000000000000000000600052603260045260246000fd5b905060200201351115610dcd576040517f08c379a0000000000000000000000000000000000000000000000000000000008152600401610dc49061222c565b60405180910390fd5b8080610dd89061253b565b915050610cbd565b5060005b84849050811015610f07576000858583818110610e2a577f4e487b7100000000000000000000000000000000000000000000000000000000600052603260045260246000fd5b9050602002013511610e71576040517f08c379a0000000000000000000000000000000000000000000000000000000008152600401610e689061220c565b60405180910390fd5b6032858583818110610eac577f4e487b7100000000000000000000000000000000000000000000000000000000600052603260045260246000fd5b905060200201351115610ef4576040517f08c379a0000000000000000000000000000000000000000000000000000000008152600401610eeb9061224c565b60405180910390fd5b8080610eff9061253b565b915050610de4565b50600060405180608001604052803373ffffffffffffffffffffffffffffffffffffffff168152602001348152602001868680806020026020016040519081016040528093929190818152602001838360200280828437600081840152601f19601f820116905080830192505050505050508152602001848480806020026020016040519081016040528093929190818152602001838360200280828437600081840152601f19601f8201169050808301925050505050505081525090506002600184846000818110611003577f4e487b7100000000000000000000000000000000000000000000000000000000600052603260045260246000fd5b9050602002013561101491906124bf565b8154811061104b577f4e487b7100000000000000000000000000000000000000000000000000000000600052603260045260246000fd5b9060005260206000209060020201600101600081548092919061106d9061253b565b919050555060026001848460018181106110b0577f4e487b7100000000000000000000000000000000000000000000000000000000600052603260045260246000fd5b905060200201356110c191906124bf565b815481106110f8577f4e487b7100000000000000000000000000000000000000000000000000000000600052603260045260246000fd5b9060005260206000209060020201600101600081548092919061111a9061253b565b9190505550600181908060018154018082558091505060019003906000526020600020906004020160009091909190915060008201518160000160006101000a81548173ffffffffffffffffffffffffffffffffffffffff021916908373ffffffffffffffffffffffffffffffffffffffff1602179055506020820151816001015560408201518160020190805190602001906111b892919061181a565b5060608201518160030190805190602001906111d592919061181a565b5050505050505050565b60606003805480602002602001604051908101604052809291908181526020016000905b82821015611289578382906000526020600020016040518060200160405290816000820180548060200260200160405190810160405280929190818152602001828054801561127157602002820191906000526020600020905b81548152602001906001019080831161125d575b50505050508152505081526020019060010190611203565b50505050905090565b60606000600567ffffffffffffffff8111156112d7577f4e487b7100000000000000000000000000000000000000000000000000000000600052604160045260246000fd5b60405190808252806020026020018201604052801561131057816020015b6112fd611867565b8152602001906001900390816112f55790505b50905060005b60058110156114e75760056000828152602001908152602001600020604051806080016040529081600082016040518060800160405290816000820160009054906101000a900473ffffffffffffffffffffffffffffffffffffffff1673ffffffffffffffffffffffffffffffffffffffff1673ffffffffffffffffffffffffffffffffffffffff16815260200160018201548152602001600282018054806020026020016040519081016040528092919081815260200182805480156113fc57602002820191906000526020600020905b8154815260200190600101908083116113e8575b505050505081526020016003820180548060200260200160405190810160405280929190818152602001828054801561145457602002820191906000526020600020905b815481526020019060010190808311611440575b5050505050815250508152602001600482015481526020016005820160009054906101000a900460ff161515151581526020016006820154815250508282815181106114c9577f4e487b7100000000000000000000000000000000000000000000000000000000600052603260045260246000fd5b602002602001018190525080806114df9061253b565b915050611316565b508091505090565b600281815481106114ff57600080fd5b90600052602060002090600202016000915090508060000154908060010154905082565b606060008251905060005b60018261153b91906124bf565b8110156117505760005b6001828461155391906124bf565b61155d91906124bf565b81101561173c578460018261157291906123de565b815181106115a9577f4e487b7100000000000000000000000000000000000000000000000000000000600052603260045260246000fd5b6020026020010151602001518582815181106115ee577f4e487b7100000000000000000000000000000000000000000000000000000000600052603260045260246000fd5b602002602001015160200151101561172957600085828151811061163b577f4e487b7100000000000000000000000000000000000000000000000000000000600052603260045260246000fd5b602002602001015190508560018361165391906123de565b8151811061168a577f4e487b7100000000000000000000000000000000000000000000000000000000600052603260045260246000fd5b60200260200101518683815181106116cb577f4e487b7100000000000000000000000000000000000000000000000000000000600052603260045260246000fd5b602002602001018190525080866001846116e591906123de565b8151811061171c577f4e487b7100000000000000000000000000000000000000000000000000000000600052603260045260246000fd5b6020026020010181905250505b80806117349061253b565b915050611545565b5080806117489061253b565b91505061152e565b5082915050919050565b60005b60018054905081101561181757600181815481106117a4577f4e487b7100000000000000000000000000000000000000000000000000000000600052603260045260246000fd5b9060005260206000209060040201600080820160006101000a81549073ffffffffffffffffffffffffffffffffffffffff021916905560018201600090556002820160006117f29190611897565b6003820160006118029190611897565b5050808061180f9061253b565b91505061175d565b50565b828054828255906000526020600020908101928215611856579160200282015b8281111561185557825182559160200191906001019061183a565b5b50905061186391906118b8565b5090565b604051806080016040528061187a6118d5565b815260200160008152602001600015158152602001600081525090565b50805460008255906000526020600020908101906118b591906118b8565b50565b5b808211156118d15760008160009055506001016118b9565b5090565b6040518060800160405280600073ffffffffffffffffffffffffffffffffffffffff1681526020016000815260200160608152602001606081525090565b60008083601f84011261192557600080fd5b8235905067ffffffffffffffff81111561193e57600080fd5b60208301915083602082028301111561195657600080fd5b9250929050565b60008135905061196c816125e2565b92915050565b6000806000806040858703121561198857600080fd5b600085013567ffffffffffffffff8111156119a257600080fd5b6119ae87828801611913565b9450945050602085013567ffffffffffffffff8111156119cd57600080fd5b6119d987828801611913565b925092505092959194509250565b6000602082840312156119f957600080fd5b6000611a078482850161195d565b91505092915050565b6000611a1c8383611f5c565b60408301905092915050565b6000611a348383611f8b565b905092915050565b6000611a488383611fb5565b905092915050565b6000611a5c838361201f565b905092915050565b6000611a708383612082565b60208301905092915050565b611a85816124f3565b82525050565b611a94816124f3565b82525050565b6000611aa582612300565b611aaf8185612378565b9350611aba836122b0565b8060005b83811015611aeb578151611ad28882611a10565b9750611add83612337565b925050600181019050611abe565b5085935050505092915050565b6000611b038261230b565b611b0d8185612389565b935083602082028501611b1f856122c0565b8060005b85811015611b5b5784840389528151611b3c8582611a28565b9450611b4783612344565b925060208a01995050600181019050611b23565b50829750879550505050505092915050565b6000611b7882612316565b611b82818561239a565b935083602082028501611b94856122d0565b8060005b85811015611bd05784840389528151611bb18582611a3c565b9450611bbc83612351565b925060208a01995050600181019050611b98565b50829750879550505050505092915050565b6000611bed82612321565b611bf781856123ab565b935083602082028501611c09856122e0565b8060005b85811015611c455784840389528151611c268582611a50565b9450611c318361235e565b925060208a01995050600181019050611c0d565b50829750879550505050505092915050565b6000611c628261232c565b611c6c81856123bc565b9350611c77836122f0565b8060005b83811015611ca8578151611c8f8882611a64565b9750611c9a8361236b565b925050600181019050611c7b565b5085935050505092915050565b611cbe81612505565b82525050565b6000611cd16015836123cd565b91507f416d6f756e74206973206e6f7420656e6f7567682100000000000000000000006000830152602082019050919050565b6000611d116019836123cd565b91507f4e756d62657273206d7573742062652035206e756d62657273000000000000006000830152602082019050919050565b6000611d516022836123cd565b91507f4f6e6c79206d616e616765722063616e2072756e20746869732066756e63746960008301527f6f6e0000000000000000000000000000000000000000000000000000000000006020830152604082019050919050565b6000611db76025836123cd565b91507f4a61636b706f74206e756d626572206d7573742062652067726561746572207460008301527f68616e20300000000000000000000000000000000000000000000000000000006020830152604082019050919050565b6000611e1d601a836123cd565b91507f4a61636b706f7473206d7573742062652032206e756d626572730000000000006000830152602082019050919050565b6000611e5d601d836123cd565b91507f4e756d626572206d7573742062652067726561746572207468616e20300000006000830152602082019050919050565b6000611e9d602f836123cd565b91507f4a61636b706f74206e756d626572206d757374206265206c657373207468616e60008301527f206f7220657175616c20746f20353000000000000000000000000000000000006020830152604082019050919050565b6000611f036027836123cd565b91507f4e756d626572206d757374206265206c657373207468616e206f72206571756160008301527f6c20746f203530000000000000000000000000000000000000000000000000006020830152604082019050919050565b604082016000820151611f726000850182612082565b506020820151611f856020850182612082565b50505050565b60006020830160008301518482036000860152611fa88282611c57565b9150508091505092915050565b6000608083016000830151611fcd6000860182611a7c565b506020830151611fe06020860182612082565b5060408301518482036040860152611ff88282611c57565b915050606083015184820360608601526120128282611c57565b9150508091505092915050565b6000608083016000830151848203600086015261203c8282611fb5565b91505060208301516120516020860182612082565b5060408301516120646040860182611cb5565b5060608301516120776060860182612082565b508091505092915050565b61208b81612531565b82525050565b61209a81612531565b82525050565b60006020820190506120b56000830184611a8b565b92915050565b60006040820190506120d06000830185611a8b565b6120dd6020830184612091565b9392505050565b600060208201905081810360008301526120fe8184611a9a565b905092915050565b600060208201905081810360008301526121208184611af8565b905092915050565b600060208201905081810360008301526121428184611b6d565b905092915050565b600060208201905081810360008301526121648184611be2565b905092915050565b6000602082019050818103600083015261218581611cc4565b9050919050565b600060208201905081810360008301526121a581611d04565b9050919050565b600060208201905081810360008301526121c581611d44565b9050919050565b600060208201905081810360008301526121e581611daa565b9050919050565b6000602082019050818103600083015261220581611e10565b9050919050565b6000602082019050818103600083015261222581611e50565b9050919050565b6000602082019050818103600083015261224581611e90565b9050919050565b6000602082019050818103600083015261226581611ef6565b9050919050565b60006020820190506122816000830184612091565b92915050565b600060408201905061229c6000830185612091565b6122a96020830184612091565b9392505050565b6000819050602082019050919050565b6000819050602082019050919050565b6000819050602082019050919050565b6000819050602082019050919050565b6000819050602082019050919050565b600081519050919050565b600081519050919050565b600081519050919050565b600081519050919050565b600081519050919050565b6000602082019050919050565b6000602082019050919050565b6000602082019050919050565b6000602082019050919050565b6000602082019050919050565b600082825260208201905092915050565b600082825260208201905092915050565b600082825260208201905092915050565b600082825260208201905092915050565b600082825260208201905092915050565b600082825260208201905092915050565b60006123e982612531565b91506123f483612531565b9250827fffffffffffffffffffffffffffffffffffffffffffffffffffffffffffffffff0382111561242957612428612584565b5b828201905092915050565b600061243f82612531565b915061244a83612531565b92508261245a576124596125b3565b5b828204905092915050565b600061247082612531565b915061247b83612531565b9250817fffffffffffffffffffffffffffffffffffffffffffffffffffffffffffffffff04831182151516156124b4576124b3612584565b5b828202905092915050565b60006124ca82612531565b91506124d583612531565b9250828210156124e8576124e7612584565b5b828203905092915050565b60006124fe82612511565b9050919050565b60008115159050919050565b600073ffffffffffffffffffffffffffffffffffffffff82169050919050565b6000819050919050565b600061254682612531565b91507fffffffffffffffffffffffffffffffffffffffffffffffffffffffffffffffff82141561257957612578612584565b5b600182019050919050565b7f4e487b7100000000000000000000000000000000000000000000000000000000600052601160045260246000fd5b7f4e487b7100000000000000000000000000000000000000000000000000000000600052601260045260246000fd5b6125eb81612531565b81146125f657600080fd5b5056fea2646970667358221220b71621425ebc64ab0650b10d2437d8db8767ad7cc9bcc320badf3f66962199cf64736f6c63430008000033",
  "linkReferences": {},
  "deployedLinkReferences": {}
}